:0300000002000EED
:0C000E00787FE4F6D8FD758120020055D3
:10015700010800010C00010D00010B00C180C181E5
:040167000209000089
:1000FB00E4FDFCC3ED9FEC9E5015E4FBFA0BBB003B
:0F010B00010ABA07F8BBD0F50DBD00010C80E466
:01011A0022C2
:0F017C00750C05750B05D292C293D294C29522D1
:0D018B00750C05750B05C290D294C295222B
:0D019800750C05750B05C291D292C2932221
:0B01A500750C05750B05C290C291227D
:10011B00300118E508D3950C5004D2908002C290A0
:0E012B00E508C394144006E4F50822C29022B1
:10013900300018E50DD3950B5004D2918002C2917D
:0E014900E50DC394144006E4F50D22C2912288
:10016C00758901758CFC758A18D28CD2A9D2AF22F4
:03000B000200DA16
:1000DA00C0E0C0D0758CFC758A18050AE50A700262
:1000EA0005090508050D12011B120139D0D0D0E00F
:0100FA0032D3
:10009A001201A5E4F97F017E001200FB20A7F409F2
:1000AA00B932F2C2B67F327E001200FBD2B612011A
:1000BA006C20B40820B50512017C80F530B4062006
:1000CA00B50312018B30B5E920B4E612019880E13C
:10001A0002009AE493A3F8E493A34003F68001F262
:10002A0008DFF48029E493A3F85407240CC8C333E7
:10003A00C4540F4420C8834004F456800146F6DFB6
:10004A00E4800B0102040810204080900157E47EEE
:10005A00019360BCA3FF543F30E509541FFEE493AB
:10006A00A360010ECF54C025E060A840B8E493A372
:10007A00FAE493A3F8E493A3C8C582C8CAC583CA9D
:10008A00F0A3C8C582C8CAC583CADFE9DEE780BE55
:01016B000093
:00000001FF
